S01C00004763634170706C69636174696F6E3130667464692E737265637F
S113000012C024C023C022C021C020C01FC01EC0F3
S11300101DC01CC01BC01AC019C018C017C016C010
S113002015C014C013C011241FBECFE5D4E0DEBF39
S1130030CDBF10E0A0E6B0E0E0E2FCE102C0059034
S11300400D92A03FB107D9F767D0E8CDD9CF20E012
S113005030E000000000000000000000000000008C
S11300600000000000002F5F3F4F8217930788F7BE
S113007008951BB888E18AB986E880BD10BC83E383
S113008089B984E690E0E3DF08958CB95E9BFECFE6
S113009088EE93E0DCDF0895CF93DF93EC01988141
S11300A0992351F021969CB95E9BFECF88EE93E094
S11300B0CEDF99919111F7CFDF91CF910895CF932E
S11300C0DF93282F39E2839F312D112432953F701D
S11300D04CE94303C0011124820F911D6AE070E0D2
S11300E06DDDD62F205DC22F349FC00D112480E317
S11300F0830FCBDF80E38D0FC8DFDD0F8D2F880FDB
S1130100880FD80F8C2F8D1BC0DFDF91CF910895FE
S11301105F9BFECF8CB10895CF93DF93CDB7DEB74D
S1130120CA56D2400FB6F894DEBF0FBECDBF87B318
S11301308FEF87BB91B381BB94B384BB8FB5826FC0
S11301408FBD8EB58A618EBD8FE19EE497BD86BD5D
S113015090DF22242394312C412C512C9E012B50CE
S11301603E4FC75ADD4F39832883C955D240A90170
S11301704C5F5F4FCD59DD4F59834883C356D240FE
S1130180BE016F567E4FC55ADD4F79836883CB55C8
S1130190D240CB010496CB59DD4F99838883C55651
S11301A0D240DE01A35DBE4FC35ADD4FB983A8839D
S11301B0CD55D240FD013496C959DD4FF983E8830A
S11301C0C756D2402C523140C15ADD4F398328835F
S11301D0CF55D240A9014C5F5F4FC759DD4F5983BA
S11301E04883C956D24050E259831A821B821C822A
S11301F0FE01359680E6DF011D928A95E9F78E01AE
S11302000F5F1F4F85DFF80181938F018E32D1F785
S113021061E670E0CE010196F8DC892B39F060E6E6
S113022070E0CE010196F1DC892B01F588E085BBF5
S11302308EEC9AE49BBD8ABDFFEF21E13AE7F150D1
S113024020403040E1F700C0000021E025BB99BD0B
S113025088BD4FEF51E16AE7415050406040E1F7FB
S113026000C0000087E690E017DFBDCF62E770E0D2
S1130270CE010196CADC892B39F061E770E0CE012A
S11302800196C3DC892BA1F415BA80E393E49BBDEA
S11302908ABD99BD88BD7FEF81E19AE771508040A6
S11302A09040E1F700C000008AE790E0F5DE9BCFC4
S11302B067E870E0CE010196A8DC892B39F066E886
S11302C070E0CE010196A1DC892B21F58EE890E047
S11302D0E3DE6894772475F8812C912CA12C0F2EE1
S11302E0F0E6BF2EF02DC75ADD4FC880C955D24065
S11302F0C65ADD4FD880CA55D240CF59DD4FF98256
S1130300E882C156D240CD59DD4FE880F980C3560A
S1130310D2400DC086E990E0BFDE67E870E0CE0110
S1130320019673DCCCDECE010196B6DE5CCFCB50F9
S1130330DE4F7882C55FD140CA50DE4F8882C65FE7
S1130340D140C950DE4F9882C75FD140C850DE4FBC
S1130350A882C85FD140D701EB2D1D92EA95E9F739
S11303600C2D1D2DD5DED8018D938D018E32D1F744
S113037060EA70E08C2D9D2D48DC009709F0B4C034
S1130380CF59DD4FE880F980C156D24041E045BBEA
S113039020E333E439BD28BDBFEFE0E7F2E0B1501C
S11303A0E040F040E1F700C0000054E255BB3BBD23
S11303B02ABD8EEC9AE499BD88BD6FEF70E7A2E088
S11303C061507040A040E1F700C0000045BB99BDFA
S11303D088BDBFEFE0E7F2E0B150E040F040E1F764
S11303E000C00000E8E0E5BB3BBD2ABD6FEF70E74D
S11303F0A2E061507040A040E1F700C0000055BB8E
S11304006AE477E47BBD6ABD79BD68BDBFEFF0E700
S113041052E0B150F0405040E1F700C0000052E11A
S113042055BB39BD28BD9BBD8ABDAFEFB0E7F2E037
S1130430A150B040F040E1F700C00000E5BB9BBD17
S11304408ABDAFEFB0E7E2E0A150B040E040E1F791
S113045000C0000045BB39BD28BDFFEF20E732E0F6
S1130460F15020403040E1F700C0000055BB79BD99
S113047068BD7BBD6ABD5FEF60E772E051506040CC
S11304807040E1F700C0000045BB99BD88BD8FEF07
S113049090E7A2E081509040A040E1F700C0000046
S11304A088EA90E0F9DD6894772475F8812C912C22
S11304B0A12C0F2EF0E6BF2EF02DC55ADD4FC880BB
S11304C0CB55D240C45ADD4FD880CC55D240CF59F9
S11304D0DD4FF982E882C156D240CB59DD4FE88026
S11304E0F980C556D24002C0EADD21CFCF56DE4F97
S11304F07882C159D140CE56DE4F8882C259D1404C
S1130500CD56DE4F9882C359D140CC56DE4FA882D7
S1130510C459D140F7012B2D11922A95E9F70C2DDE
S11305201D2DF6DDD8018D938D018E32D1F760EB50
S113053070E08C2D9D2D69DB892BC1F6CF59DD4FE1
S1130540E880F980C156D24048E045BB20E333E45B
S11305503BBD2ABDBFEFE0E7F2E0B150E040F04020
S1130560E1F700C0000052E155BB3BBD2ABD8EEC53
S11305709AE499BD88BD6FEF70E7A2E061507040C6
S1130580A040E1F700C0000045BB9BBD8ABDBFEFA2
S1130590E0E7F2E0B150E040F040E1F700C00000D5
S11305A041E045BB39BD28BD2FEF30E762E0215063
S11305B030406040E1F700C0000055BB2AE437E456
S11305C039BD28BD3BBD2ABD7FEFA0E7B2E0715025
S11305D0A040B040E1F700C0000045BB99BD88BD14
S11305E0EFEFF0E722E0E150F0402040E1F700C0F7
S11305F0000088EB90E050DD6894772475F8812C36
S1130600912CA12C0F2EF0E6BF2EF02DC35ADD4FF6
S1130610C880CD55D240C25ADD4FD880CE55D24085
S1130620CF59DD4FF982E882C156D240C959DD4F16
S1130630E880F980C756D240C35DDE4F7882CD5240
S1130640D140C25DDE4F8882CE52D140C15DDE4FC3
S11306509882CF52D140C05DDE4FA882C053D140B2
S1130660D701EB2D1D92EA95E9F70C2D1D2D50DDD8
S1130670D8018D938D018E32D1F760EC70E08C2D12
S11306809D2DC3DA892BC1F6CF59DD4FE880F9805F
S1130690C156D24041E045BB20E333E439BD28BD17
S11306A0BFEFE0E7F2E0B150E040F040E1F700C016
S11306B0000054E255BB3BBD2ABD8EEC9AE499BDC3
S11306C088BD6FEF70E7A2E061507040A040E1F791
S11306D000C0000045BB99BD88BDBFEFE0E7F2E074
S11306E0B150E040F040E1F700C0000048E045BBF5
S11306F03BBD2ABD2FEF30E762E02150304060401F
S1130700E1F700C0000055BB2AE437E43BBD2ABD35
S113071039BD28BD7FEFA0E7B2E07150A040B040E2
S1130720E1F700C0000045BB9BBD8ABDEFEFF0E7D9
S113073022E0E150F0402040E1F700C0000087ECE7
S113074090E0AADC6894772475F8812C912CA12C74
S11307500F2EF0E6BF2EF02DC15ADD4FC880CF55C5
S1130760D240C05ADD4FD880C056D240CF59DD4F59
S1130770F982E882C156D240C759DD4FE880F9803A
S1130780C956D240C753DF4F7882C95CD040C653A4
S1130790DF4F8882CA5CD040C553DF4F9882CB5C60
S11307A0D040C453DF4FA882CC5CD040D701EB2D9E
S11307B01D92EA95E9F70C2D1D2DAADCD8018D9325
S11307C08D018E32D1F76EEC70E08C2D9D2D1DDAEB
S11307D0892BC1F6CF59DD4FE880F980C156D2404C
S11307E041E045BB20E333E439BD28BDBFEFE0E77A
S11307F0F2E0B150E040F040E1F700C0000054E204
S113080055BB8EEC9AE49BBD8ABD39BD28BD6FEF04
S113081070E7A2E061507040A040E1F700C0000022
S113082045BB99BD88BDBFEFE0E7F2E0B150E040C1
S1130830F040E1F700C00000E8E0E5BB3BBD2ABDA5
S11308406FEF70E7A2E061507040A040E1F700C094
S1130850000055BB6AE477E47BBD6ABD79BD68BD21
S1130860BFEFF0E752E0B150F0405040E1F700C074
S1130870000052E155BB3BBD2ABD99BD88BDAFEF19
S1130880B0E7F2E0A150B040F040E1F700C0000052
S1130890E5BB9BBD8ABDAFEFB0E7E2E0A150B0403D
S11308A0E040E1F700C0000045BB39BD28BDFFEFC3
S11308B020E732E0F15020403040E1F700C0000072
S11308C055BB79BD68BD7BBD6ABD5FEF60E772E073
S11308D0515060407040E1F700C0000045BB99BD35
S11308E088BD8FEF90E7A2E081509040A040E1F7EF
S11308F000C0000085ED90E0CFDB6E01B5E6CB0EC5
S1130900D11C6894662465F8712C812C00E0560192
S1130910E4E0AE0EB11CCF59DD4FF982E882C15636
S1130920D240F82CE02E8D2C9C2CD6016C92119682
S11309307C9211971296FC9212971396EC92F50101
S113094020E611922A95E9F7092D182DE1DBD8014B
S11309508D938D018E32D1F76CED70E0892D982D39
S113096054D9892B11F7CF59DD4FE880F980C1564E
S1130970D2406894992493F895BA0F2EF0E3CF2EC1
S1130980F3E4DF2EF02DDBBCCABCBFEFE0E7F2E0FE
S1130990B150E040F040E1F700C000000F2EF2E15A
S11309A07F2EF02D75BADBBCCABC0EEC1AE419BD5F
S11309B008BD2FEF30E742E0215030404040E1F7DE
S11309C000C0000095BA1BBD0ABD5FEF60E772E08E
S11309D0515060407040E1F700C0000088248394C7
S11309E085BAD9BCC8BC8FEF90E7A2E08150904093
S11309F0A040E1F700C0000075BA0F2EFAE4AF2E54
S1130A00F7E4BF2EF02DB9BCA8BCBBBCAABCBFEF99
S1130A10E0E7F2E0B150E040F040E1F700C0000050
S1130A2085BA19BD08BD2FEF30E742E021503040B0
S1130A304040E1F700C0000083EE90E02DDB85BA72
S1130A40D9BCC8BC5FEF60E772E0515060407040B1
S1130A50E1F700C0000075BADBBCCABC19BD08BD13
S1130A608FEF90E7A2E081509040A040E1F700C0F2
S1130A70000085BA19BD08BDBFEFE0E7F2E0B15050
S1130A80E040F040E1F700C0000095BADBBCCABC0E
S1130A902FEF30E742E0215030404040E1F700C002
S1130AA0000075BA1BBD0ABDD9BCC8BC5FEF60E7C6
S1130AB072E0515060407040E1F700C0000095BA08
S1130AC01BBD0ABD8FEF90E7A2E081509040A0408B
S1130AD0E1F700C0000085BAD9BCC8BCBFEFE0E7AD
S1130AE0F2E0B150E040F040E1F700C0000075BA18
S1130AF0BBBCAABCB9BCA8BC2FEF30E742E0215074
S1130B0030404040E1F700C0000084E285BB1BBDDB
S1130B100ABDD9BCC8BC5FEF60E772E051506040C9
S1130B207040E1F700C0000085BA19BD08BD9FEF11
S1130B30A0E7B2E09150A040B040E1F700C000004F
S1130B4095BADBBCCABCEFEFF0E722E0E150F0401D
S1130B502040E1F700C0000085BBBBBCAABCB9BC07
S1130B60A8BC3FEF40E752E0315040405040E1F72D
S1130B7000C0000095BA1BBD0ABD6FEF70E782E0AC
S1130B80615070408040E1F700C0000090E299831A
S1130B901A821B821C82FE01359680E6DF011D92BB
S1130BA08A95E9F78E010F5F1F4FB2DAF80181933E
S1130BB08F018E32D1F7FE01E20DF31DD180FEE2EA
S1130BC0DF12C1C78701F5C70F5F1F4FC801820D30
S1130BD0931D8E199F09B191B032B1F701C08701FD
S1130BE00130110509F03BC2B2E5DB1231C095BA00
S1130BF05BBD4ABDEFEFF0E7B2E0E150F040B0403A
S1130C00E1F700C0000075BA5BBD4ABDEFEFF0E745
S1130C10B2E0E150F040B040E1F700C0000095BA06
S1130C207BBD6ABDEFEFF0E7B2E0E150F040B040C9
S1130C30E1F700C0000075BA3BBD2ABDEFEFF0E755
S1130C40B2E0E150F040B040E1F700C0000003C260
S1130C50ECE4DE1231C085BA59BD48BDFFEFB0E700
S1130C60E2E0F150B040E040E1F700C0000075BAA6
S1130C705BBD4ABDFFEFB0E7E2E0F150B040E040B9
S1130C80E1F700C0000085BA79BD68BDFFEFB0E7A9
S1130C90E2E0F150B040E040E1F700C0000075BA76
S1130CA03BBD2ABDFFEFB0E7E2E0F150B040E040C9
S1130CB0E1F700C00000CFC1F6E4DF1231C0A5BAED
S1130CC05BBD4ABDBFEFE0E7F2E0B150E040F04069
S1130CD0E1F700C00000A5BB59BD48BDBFEFE0E788
S1130CE0F2E0B150E040F040E1F700C00000A5BAE6
S1130CF079BD68BDBFEFE0E7F2E0B150E040F040FD
S1130D00E1F700C00000A5BB39BD28BDBFEFE0E797
S1130D10F2E0B150E040F040E1F700C000009BC1B8
S1130D20B2E4DB1231C0B5BA59BD48BDEFEFF0E70C
S1130D30B2E0E150F040B040E1F700C00000A5BBD4
S1130D4059BD48BDEFEFF0E7B2E0E150F040B040EC
S1130D50E1F700C00000B5BA79BD68BDEFEFF0E778
S1130D60B2E0E150F040B040E1F700C00000A5BBA4
S1130D7039BD28BDEFEFF0E7B2E0E150F040B040FC
S1130D80E1F700C0000067C1E5E5DE12B1C0A5BB14
S1130D9059BD48BDFFEFB0E7E2E0F150B040E0409C
S1130DA0E1F700C00000C5BA3BBD2ABD59BD48BD2E
S1130DB0FFEFB0E7E2E0F150B040E040E1F700C0FF
S1130DC00000A5BB39BD28BDFFEFB0E7E2E0F1505C
S1130DD0B040E040E1F700C0000075BA5BBD4ABD19
S1130DE0FFEFB0E7E2E0F150B040E040E1F700C0CF
S1130DF0000015BA7BBD6ABD79BD68BDFFEFB0E7E1
S1130E00E2E0F150B040E040E1F700C0000075BA04
S1130E103BBD2ABDFFEFB0E7E2E0F150B040E04057
S1130E20E1F700C00000A5BA5BBD4ABDFFEFB0E723
S1130E30E2E0F150B040E040E1F700C00000A5BBA3
S1130E4059BD48BDFFEFB0E7E2E0F150B040E040EB
S1130E50E1F700C00000A5BA7BBD6ABDFFEFB0E7B3
S1130E60E2E0F150B040E040E1F700C00000C5BA54
S1130E705BBD4ABD39BD28BDFFEFB0E7E2E0F150EC
S1130E80B040E040E1F700C00000A5BB39BD28BD7B
S1130E90FFEFB0E7E2E0F150B040E040E1F700C01E
S1130EA0000075BA5BBD4ABDFFEFB0E7E2E0F15068
S1130EB0B040E040E1F700C00000C5BA7BBD6ABDA8
S1130EC079BD68BDFFEFB0E7E2E0F150B040E0402B
S1130ED0E1F700C0000075BA3BBD2ABDFFEFB0E7E3
S1130EE0E2E0F150B040E040E1F700C00000B3C0E0
S1130EF0F4E4DF12B0C0A5BB59BD48BDBFEFE0E7C5
S1130F00F2E0B150E040F040E1F700C00000C5BAA3
S1130F103BBD2ABD59BD48BDBFEFE0E7F2E0B1508B
S1130F20E040F040E1F700C00000A5BB39BD28BD9A
S1130F30BFEFE0E7F2E0B150E040F040E1F700C07D
S1130F40000075BA5BBD4ABDBFEFE0E7F2E0B15007
S1130F50E040F040E1F700C00000C5BA7BBD6ABDC7
S1130F6079BD68BDBFEFE0E7F2E0B150E040F0408A
S1130F70E1F700C0000075BA3BBD2ABDBFEFE0E752
S1130F80F2E0B150E040F040E1F700C00000B5BA33
S1130F9059BD48BDBFEFE0E7F2E0B150E040F0409A
S1130FA0E1F700C00000A5BB59BD48BDBFEFE0E7B5
S1130FB0F2E0B150E040F040E1F700C00000B5BA03
S1130FC079BD68BDBFEFE0E7F2E0B150E040F0402A
S1130FD0E1F700C00000C5BA5BBD4ABD39BD28BDFC
S1130FE0BFEFE0E7F2E0B150E040F040E1F700C0CD
S1130FF00000A5BB39BD28BDBFEFE0E7F2E0B1506A
S1131000E040F040E1F700C0000075BA5BBD4ABDA6
S1131010BFEFE0E7F2E0B150E040F040E1F700C09C
S11310200000C5BA7BBD6ABD79BD68BDBFEFE0E70E
S1131030F2E0B150E040F040E1F700C0000075BAC2
S11310403BBD2ABDBFEFE0E7F2E0B150E040F04025
S1131050E1F700C00000BFEF4B1A5B0A65C5023020
S1131060110509F061C5E2E0F0E0EC0FFD1FE40DAD
S1131070F51DE081E23309F01AC3E1E0F0E0EC0F82
S1131080FD1FE40DF51DE081E23509F055C075BA88
S11310905BBD4ABDEFEFF0E7B2E0E150F040B04095
S11310A0E1F700C0000095BA3BBD2ABDEFEFF0E7C1
S11310B0B2E0E150F040B040E1F700C0000075BA82
S11310C03BBD2ABDEFEFF0E7B2E0E150F040B040A5
S11310D0E1F700C0000095BA5BBD4ABDEFEFF0E751
S11310E0B2E0E150F040B040E1F700C0000075BA52
S11310F05BBD4ABDEFEFF0E7B2E0E150F040B04035
S1131100E1F700C0000095BA7BBD6ABDEFEFF0E7E0
S1131110B2E0E150F040B040E1F700C0000075BA21
S11311203BBD2ABDEFEFF0E7B2E0E150F040B04044
S1131130E1F700C00000B7C2EC3409F055C075BA3D
S11311405BBD4ABDEFEFF0E7B2E0E150F040B040E4
S1131150E1F700C0000085BA39BD28BDEFEFF0E724
S1131160B2E0E150F040B040E1F700C0000075BAD1
S11311703BBD2ABDEFEFF0E7B2E0E150F040B040F4
S1131180E1F700C0000085BA59BD48BDEFEFF0E7B4
S1131190B2E0E150F040B040E1F700C0000075BAA1
S11311A05BBD4ABDEFEFF0E7B2E0E150F040B04084
S11311B0E1F700C0000085BA79BD68BDEFEFF0E744
S11311C0B2E0E150F040B040E1F700C0000075BA71
S11311D03BBD2ABDEFEFF0E7B2E0E150F040B04094
S11311E0E1F700C000005FC2E63409F055C0A5BBBA
S11311F059BD48BDEFEFF0E7B2E0E150F040B04038
S1131200E1F700C00000A5BA3BBD2ABDEFEFF0E74F
S1131210B2E0E150F040B040E1F700C00000A5BBEF
S113122039BD28BDEFEFF0E7B2E0E150F040B04047
S1131230E1F700C00000A5BA5BBD4ABDEFEFF0E7DF
S1131240B2E0E150F040B040E1F700C00000A5BBBF
S113125059BD48BDEFEFF0E7B2E0E150F040B040D7
S1131260E1F700C00000A5BA7BBD6ABDEFEFF0E76F
S1131270B2E0E150F040B040E1F700C00000A5BB8F
S113128039BD28BDEFEFF0E7B2E0E150F040B040E7
S1131290E1F700C0000007C2E23409F055C0A5BB65
S11312A059BD48BDEFEFF0E7B2E0E150F040B04087
S11312B0E1F700C00000B5BA39BD28BDEFEFF0E793
S11312C0B2E0E150F040B040E1F700C00000A5BB3F
S11312D039BD28BDEFEFF0E7B2E0E150F040B04097
S11312E0E1F700C00000B5BA59BD48BDEFEFF0E723
S11312F0B2E0E150F040B040E1F700C00000A5BB0F
S113130059BD48BDEFEFF0E7B2E0E150F040B04026
S1131310E1F700C00000B5BA79BD68BDEFEFF0E7B2
S1131320B2E0E150F040B040E1F700C00000A5BBDE
S113133039BD28BDEFEFF0E7B2E0E150F040B04036
S1131340E1F700C00000AFC1E53509F0D5C0A5BB89
S113135059BD48BDEFEFF0E7B2E0E150F040B040D6
S1131360E1F700C00000C5BA3BBD2ABD59BD48BD68
S1131370EFEFF0E7B2E0E150F040B040E1F700C039
S11313800000A5BB39BD28BDEFEFF0E7B2E0E150A6
S1131390F040B040E1F700C0000075BA5BBD4ABD43
S11313A0EFEFF0E7B2E0E150F040B040E1F700C009
S11313B00000C5BA7BBD6ABD79BD68BDEFEFF0E73B
S11313C0B2E0E150F040B040E1F700C0000075BA6F
S11313D03BBD2ABDEFEFF0E7B2E0E150F040B04092
S11313E0E1F700C00000A5BB59BD48BDEFEFF0E731
S11313F0B2E0E150F040B040E1F700C00000A5BA0F
S11314003BBD2ABDEFEFF0E7B2E0E150F040B04061
S1131410E1F700C00000A5BB39BD28BDEFEFF0E740
S1131420B2E0E150F040B040E1F700C00000A5BADE
S11314305BBD4ABDEFEFF0E7B2E0E150F040B040F1
S1131440E1F700C00000A5BB59BD48BDEFEFF0E7D0
S1131450B2E0E150F040B040E1F700C00000A5BAAE
S11314607BBD6ABDEFEFF0E7B2E0E150F040B04081
S1131470E1F700C00000C5BA5BBD4ABD39BD28BD57
S1131480EFEFF0E7B2E0E150F040B040E1F700C028
S11314900000A5BB39BD28BDEFEFF0E7B2E0E15095
S11314A0F040B040E1F700C0000075BA5BBD4ABD32
S11314B0EFEFF0E7B2E0E150F040B040E1F700C0F8
S11314C00000C5BA7BBD6ABD79BD68BDEFEFF0E72A
S11314D0B2E0E150F040B040E1F700C0000075BA5E
S11314E03BBD2ABDEFEFF0E7B2E0E150F040B04081
S11314F0E1F700C00000D7C0E43409F0D4C0A5BBB4
S113150059BD48BDEFEFF0E7B2E0E150F040B04024
S1131510E1F700C00000C5BA3BBD2ABD59BD48BDB6
S1131520EFEFF0E7B2E0E150F040B040E1F700C087
S11315300000A5BB39BD28BDEFEFF0E7B2E0E150F4
S1131540F040B040E1F700C0000075BA5BBD4ABD91
S1131550EFEFF0E7B2E0E150F040B040E1F700C057
S11315600000C5BA7BBD6ABD79BD68BDEFEFF0E789
S1131570B2E0E150F040B040E1F700C0000075BABD
S11315803BBD2ABDEFEFF0E7B2E0E150F040B040E0
S1131590E1F700C00000A5BB59BD48BDEFEFF0E77F
S11315A0B2E0E150F040B040E1F700C00000B5BA4D
S11315B039BD28BDEFEFF0E7B2E0E150F040B040B4
S11315C0E1F700C00000A5BB39BD28BDEFEFF0E78F
S11315D0B2E0E150F040B040E1F700C00000B5BA1D
S11315E059BD48BDEFEFF0E7B2E0E150F040B04044
S11315F0E1F700C00000A5BB59BD48BDEFEFF0E71F
S1131600B2E0E150F040B040E1F700C00000B5BAEC
S113161079BD68BDEFEFF0E7B2E0E150F040B040D3
S1131620E1F700C00000C5BA5BBD4ABD39BD28BDA5
S1131630EFEFF0E7B2E0E150F040B040E1F700C076
S11316400000A5BB39BD28BDEFEFF0E7B2E0E150E3
S1131650F040B040E1F700C0000075BA5BBD4ABD80
S1131660EFEFF0E7B2E0E150F040B040E1F700C046
S11316700000C5BA7BBD6ABD79BD68BDEFEFF0E778
S1131680B2E0E150F040B040E1F700C0000075BAAC
S11316903BBD2ABDEFEFF0E7B2E0E150F040B040CF
S11316A0E1F700C00000E2E04E0E511C3AC2E1E056
S11316B0F0E0EC0FFD1FE40DF51DE081E23589F546
S11316C095BA3BBD2ABDFFEFB0E7E2E0F150B04070
S11316D0E040E1F700C0000075BA5BBD4ABDFFEF12
S11316E0B0E7E2E0F150B040E040E1F700C00000B4
S11316F095BA7BBD6ABDFFEFB0E7E2E0F150B040C0
S1131700E040E1F700C0000075BA3BBD2ABDFFEF21
S1131710B0E7E2E0F150B040E040E1F700C0000083
S113172000C2EC3489F585BA39BD28BDFFEFB0E7B6
S1131730E2E0F150B040E040E1F700C0000075BACB
S11317405BBD4ABDFFEFB0E7E2E0F150B040E040DE
S1131750E1F700C0000085BA79BD68BDFFEFB0E7CE
S1131760E2E0F150B040E040E1F700C0000075BA9B
S11317703BBD2ABDFFEFB0E7E2E0F150B040E040EE
S1131780E1F700C00000CDC1E63489F5A5BA3BBD40
S11317902ABDFFEFB0E7E2E0F150B040E040E1F7EE
S11317A000C00000A5BB59BD48BDFFEFB0E7E2E0B3
S11317B0F150B040E040E1F700C00000A5BA7BBDA5
S11317C06ABDFFEFB0E7E2E0F150B040E040E1F77E
S11317D000C00000A5BB39BD28BDFFEFB0E7E2E0C3
S11317E0F150B040E040E1F700C000009AC1E2349B
S11317F089F5B5BA39BD28BDFFEFB0E7E2E0F15095
S1131800B040E040E1F700C00000A5BB59BD48BDB1
S1131810FFEFB0E7E2E0F150B040E040E1F700C094
S11318200000B5BA79BD68BDFFEFB0E7E2E0F15062
S1131830B040E040E1F700C00000A5BB39BD28BDC1
S1131840FFEFB0E7E2E0F150B040E040E1F700C064
S1131850000067C1E53509F0B1C0A5BB59BD48BD5D
S1131860FFEFB0E7E2E0F150B040E040E1F700C044
S11318700000C5BA3BBD2ABD59BD48BDFFEFB0E766
S1131880E2E0F150B040E040E1F700C00000A5BB49
S113189039BD28BDFFEFB0E7E2E0F150B040E040D1
S11318A0E1F700C0000075BA5BBD4ABDFFEFB0E7C9
S11318B0E2E0F150B040E040E1F700C00000C5BAFA
S11318C07BBD6ABD79BD68BDFFEFB0E7E2E0F150D2
S11318D0B040E040E1F700C0000075BA3BBD2ABD4E
S11318E0FFEFB0E7E2E0F150B040E040E1F700C0C4
S11318F00000A5BA3BBD2ABDFFEFB0E7E2E0F1501E
S1131900B040E040E1F700C00000A5BB59BD48BDB0
S1131910FFEFB0E7E2E0F150B040E040E1F700C093
S11319200000A5BA7BBD6ABDFFEFB0E7E2E0F1506D
S1131930B040E040E1F700C00000C5BA5BBD4ABD5D
S113194039BD28BDFFEFB0E7E2E0F150B040E04020
S1131950E1F700C00000A5BB39BD28BDFFEFB0E72B
S1131960E2E0F150B040E040E1F700C0000075BA99
S11319705BBD4ABDFFEFB0E7E2E0F150B040E040AC
S1131980E1F700C00000C5BA7BBD6ABD79BD68BD82
S1131990FFEFB0E7E2E0F150B040E040E1F700C013
S11319A0000075BA3BBD2ABDFFEFB0E7E2E0F1509D
S11319B0B040E040E1F700C00000B3C0E43409F0F7
S11319C0B0C0A5BB59BD48BDFFEFB0E7E2E0F150A0
S11319D0B040E040E1F700C00000C5BA3BBD2ABDFD
S11319E059BD48BDFFEFB0E7E2E0F150B040E04040
S11319F0E1F700C00000A5BB39BD28BDFFEFB0E78B
S1131A00E2E0F150B040E040E1F700C0000075BAF8
S1131A105BBD4ABDFFEFB0E7E2E0F150B040E0400B
S1131A20E1F700C00000C5BA7BBD6ABD79BD68BDE1
S1131A30FFEFB0E7E2E0F150B040E040E1F700C072
S1131A40000075BA3BBD2ABDFFEFB0E7E2E0F150FC
S1131A50B040E040E1F700C00000B5BA39BD28BD90
S1131A60FFEFB0E7E2E0F150B040E040E1F700C042
S1131A700000A5BB59BD48BDFFEFB0E7E2E0F1505F
S1131A80B040E040E1F700C00000B5BA79BD68BDE0
S1131A90FFEFB0E7E2E0F150B040E040E1F700C012
S1131AA00000C5BA5BBD4ABD39BD28BDFFEFB0E734
S1131AB0E2E0F150B040E040E1F700C00000A5BB17
S1131AC039BD28BDFFEFB0E7E2E0F150B040E0409F
S1131AD0E1F700C0000095BA5BBD4ABDFFEFB0E777
S1131AE0E2E0F150B040E040E1F700C00000C5BAC8
S1131AF07BBD6ABD79BD68BDFFEFB0E7E2E0F150A0
S1131B00B040E040E1F700C0000075BA3BBD2ABD1B
S1131B10FFEFB0E7E2E0F150B040E040E1F700C091
S1131B200000F2E04F0E511CBFEF4B1A5B0AE1E0DC
S1131B30F0E0EC0FFD1FE40DF51DD080EEE2DE16A3
S1131B40B1F1780120C0A1E040E353E40F2EF4E2A8
S1131B50CF2EF02D2EEC3AE46894772473F86AE4DF
S1131B6077E40F2EF1E1BF2EF02D0F2EFCE09F2E17
S1131B70F02D0F2EFAE0AF2EF02D0F2EF1E28F2E66
S1131B80F02DC2012101E1E0F0E0EC0FFD1FE80FB0
S1131B90F91FE081E03209F422C81C010196E1E05A
S1131BA0F0E0EC0FFD1FE80FF91F87010DC81201CB
S1131BB02C018AEE90E070D2780115C397FB072EB2
S1131BC016F4009406D077FD08D00BD007FC05D09E
S1131BD03EF4909581959F4F0895709561957F4F40
S1131BE00895AA1BBB1B51E107C0AA1FBB1FA61760
S1131BF0B70710F0A61BB70B881F991F5A95A9F7B2
S1131C0080959095BC01CD010895FB01DC018D9177
S1131C10019080190110D9F3990B0895F894FFCF1E
S1131C200A477261622E00477261626265642E0A1D
S1131C30000A556E677261622E00556E67726162AA
S1131C406265642E0A000A53746172742E00526530
S1131C506164792E0A00496E76616C69642E0A000B
S1131C600A52696768742E0052696768742E0A0004
S1131C700A46726F6E742E0046726F6E742E0A00DE
S1131C800A446F776E2E00446F776E2E0A000A4C5A
S1131C906566742E004C6566742E0A000A42616300
S1131CA06B2E004261636B2E0A00446F6E650A005E
S9030000FC
